:020000040000FA
:08000000803102288731DD2F59
:100C4A00023400340034B434640080010131890B69
:100C5A002A2E0034FE0012001E00FE0B302E003435
:100C6A002000911C392E3A2E352E91100800F030B2
:100C7A00210099003F30980023008C0120008C014C
:100C8A001F3021008C0022008C0123008D012000DE
:100C9A008D0121008D0122008D0120008E018A30F4
:100CAA0021008E0022008E01200090012100900177
:100CBA00220090010530F1000F30F000F130890B6D
:100CCA00642EF00B642EF10B642E00000C3026000B
:100CDA00930022001D13673020009B001E3026005F
:100CEA00910020001C159C101C1408004C349F34E1
:100CFA00ED3462349A34003400340034273400343A
:100D0A00003400347334A034713401348E345D34C9
:100D1A002F34FC346734003400340034DA340034BD
:100D2A0000340034B134A034713401342D34FE342B
:100D3A008C345F342C340034003400343834EB34CF
:100D4A0099344A341234C134B3346034EF343C3405
:100D5A004E349D34D1340034003400346C340034C1
:100D6A0000340034D03403347134A23486313C2642
:100D7A008631873103278631C8302000A0008B30A6
:100D8A00A100A201A301A401A501A601A701A8012E
:100D9A00A9014C30AA003808A2003708A30035037D
:100DAA00031DD82ED92EDD2EB501D530AA00E32E8B
:100DBA003608A03E860087010108AA00FD017D08C9
:100DCA00203E86008701010887315327863101308A
:100DDA00FC007C08FD070B307D02031CF52EF62E65
:100DEA00E42E1E3026009100D030FC00CA30890B58
:100DFA00FC2EFC0BFC2EBE2E803102282000B801EE
:100E0A00B701B6010C180A2F0B2F0F2F8D163815A4
:100E1A00B616122F8D123811B6128C18152F162FDE
:100E2A001A2F0D16B81536161D2F0D12B8113612B7
:100E3A000C19202F212F252F8D153816B615282F7E
:100E4A008D113812B6118C192B2F2C2F302F0D150E
:100E5A00B8163615332F0D11B81236110C1A362F53
:100E6A00372F452F0C1D3A2F3B2F452F8C1D3E2F18
:100E7A003F2F452F8D150D153816B8163615B61590
:100E8A008E19482F492F502F0D140630B800B7017C
:100E9A00B501B50A522F0D10B5010800FB007130DB
:100EAA008600003087000830F00000301E00F00B8A
:100EBA005B2F7B080139F1007B360139F2007B0890
:100ECA00F0000230F036890B672F70080139F30001
:100EDA007B08F0000330F036890B702F7008013957
:100EEA00F4007B08F0000430F036890B792F700883
:100EFA000139F5007B08F0000530F036890B822FA6
:100F0A0070080139F6007B08F0000630F036890BCC
:100F1A008B2F70080139F7007B08F0000730F03694
:100F2A00890B942F70080139F800863135268731EC
:100F3A00373026009100FA017A08713E860087014F
:100F4A000103031DA92FAA2FB12F7A08713E86002B
:100F5A0087011E308100B72F7A08713E860087010B
:100F6A00373081008631352687317A08713E86000E
:100F7A0087010108260091000130F0007008FA0785
:100F8A0008307A02031CCA2FCB2FA12FF901863110
:100F9A00352687311E30260091000130F000700896
:100FAA00F90708307902031CDB2FDC2FCC2F08004D
:100FBA00253084008630850039308600003087006D
:100FCA00043086312F2687317B30840086308500B5
:100FDA00A030860000308700403086312F268731C6
:100FEA002030840000308500193086312926873167
:060FFA0020008631BB2E31
:020000040001F9
:04000E00240EFF1F9E
:00000001FF
