:020000040000FA
:08000000803102288731DD2F59
:100C5800023400340034B434640080010131890B5B
:100C6800312E0034FE0012001E00FE0B372E003419
:100C78002000911C402E412E3C2E91100800F0308F
:100C8800210099003F30980023008C0120008C013E
:100C98001F3021008C0022008C0123008D012000D0
:100CA8008D0121008D0122008D0120008E018A30E6
:100CB80021008E0022008E01200090012100900169
:100CC800220090010530F1000F30F000F130890B5F
:100CD8006B2EF00B6B2EF10B6B2E00000C302600E8
:100CE800930022001D13673020009B001E30260051
:100CF800910020001C159C101C1408004C349F34D3
:100D0800ED3462349A34003400340034273400342B
:100D1800003400347334A034713401348E345D34BB
:100D28002F34FC346734003400340034DA340034AF
:100D3800003400341234A034713401342D34FE34BC
:100D48008C345F342C340034003400343834EB34C1
:100D580099344A341234C134B3346034EF343C34F7
:100D68004E349D34D1340034003400346C340034B3
:100D780000340034D03403347134A234863143262D
:100D8800863187310A278631C8302000A0008B3091
:100D9800A100A201A301A401A501A601A701A80120
:100DA800A9014C30AA003808A2003708A30035036F
:100DB800031DDF2EE02EE42EB501D530AA00EA2E61
:100DC8003608A03E860087010108AA00FD017D08BB
:100DD800203E86008701010887315327863101307C
:100DE800FC007C08FD070B307D02031CFC2EFD2E49
:100DF800EB2E1E3026009100D030FC00CA30890B43
:100E0800032FFC0B032FC52E803102282000B801C8
:100E1800B701B6010C18112F122F162F8D16381581
:100E2800B616192F8D123811B6128C181C2F1D2FBB
:100E3800212F0D16B8153616242F0D12B81136129B
:100E48000C19272F282F2C2F8D153816B6152F2F54
:100E58008D113812B6118C19322F332F372F0D15EB
:100E6800B81636153A2F0D11B81236118E193D2FB6
:100E78003E2F452F0D140630B800B701B501B50A4D
:100E8800472F0D10B5010C1A4A2F4B2F512F8D14D7
:100E9800B801B701B501B50A522F8D100800FB0043
:100EA80071308600003087000830F00000301E00E6
:100EB800F00B5B2F7B080139F1007B360139F2001A
:100EC8007B08F0000230F036890B672F7008013973
:100ED800F3007B08F0000330F036890B702F7008A0
:100EE8000139F4007B08F0000430F036890B792FC3
:100EF80070080139F5007B08F0000530F036890BE1
:100F0800822F70080139F6007B08F0000630F036B1
:100F1800890B8B2F70080139F7007B08F000073028
:100F2800F036890B942F70080139F80086313C2679
:100F38008731373026009100FA017A08713E860021
:100F480087010103031DA92FAA2FB12F7A08713E2B
:100F5800860087011E308100B72F7A08713E86000F
:100F680087013730810086313C2687317A08713E07
:100F7800860087010108260091000130F000700802
:100F8800FA0708307A02031CCA2FCB2FA12FF901C8
:100F980086313C2687311E30260091000130F00052
:100FA8007008F90708307902031CDB2FDC2FCC2FDF
:100FB80008002C30840086308500393086000030E7
:100FC80087000430863136268731823084008630A7
:100FD8008500A030860000308700403086313626F4
:100FE8008731203084000030850019308631302662
:080FF800873120008631C22E72
:020000040001F9
:04000E00240EFF1F9E
:00000001FF
